{
  "_format": "hh-sol-artifact-1",
  "contractName": "SwapRouter",
  "sourceName": "contracts/SwapRouter.sol",
  "abi": [
    {
      "inputs": [
        {
          "internalType": "contract ISwapRouter",
          "name": "_swapRouter",
          "type": "address"
        }
      ],
      "stateMutability": "nonpayable",
      "type": "constructor"
    },
    {
      "inputs": [],
      "name": "DAI",
      "outputs": [
        {
          "internalType": "address",
          "name": "",
          "type": "address"
        }
      ],
      "stateMutability": "view",
      "type": "function"
    },
    {
      "inputs": [],
      "name": "UNI",
      "outputs": [
        {
          "internalType": "address",
          "name": "",
          "type": "address"
        }
      ],
      "stateMutability": "view",
      "type": "function"
    },
    {
      "inputs": [],
      "name": "WETH9",
      "outputs": [
        {
          "internalType": "address",
          "name": "",
          "type": "address"
        }
      ],
      "stateMutability": "view",
      "type": "function"
    },
    {
      "inputs": [],
      "name": "greeting",
      "outputs": [
        {
          "internalType": "string",
          "name": "",
          "type": "string"
        }
      ],
      "stateMutability": "view",
      "type": "function"
    },
    {
      "inputs": [],
      "name": "poolFee",
      "outputs": [
        {
          "internalType": "uint24",
          "name": "",
          "type": "uint24"
        }
      ],
      "stateMutability": "view",
      "type": "function"
    },
    {
      "inputs": [
        {
          "internalType": "uint256",
          "name": "amountIn",
          "type": "uint256"
        },
        {
          "internalType": "address",
          "name": "tokenOut",
          "type": "address"
        }
      ],
      "name": "swapExactInputSingle",
      "outputs": [
        {
          "internalType": "uint256",
          "name": "amountOut",
          "type": "uint256"
        }
      ],
      "stateMutability": "nonpayable",
      "type": "function"
    },
    {
      "inputs": [],
      "name": "swapRouter",
      "outputs": [
        {
          "internalType": "contract ISwapRouter",
          "name": "",
          "type": "address"
        }
      ],
      "stateMutability": "view",
      "type": "function"
    }
  ],
  "bytecode": "0x60a060405234801561001057600080fd5b50604051610d01380380610d0183398181016040528101906100329190610084565b8073ffffffffffffffffffffffffffffffffffffffff1660808173ffffffffffffffffffffffffffffffffffffffff1660601b8152505050610108565b60008151905061007e816100f1565b92915050565b60006020828403121561009657600080fd5b60006100a48482850161006f565b91505092915050565b60006100b8826100d1565b9050919050565b60006100ca826100ad565b9050919050565b600073ffffffffffffffffffffffffffffffffffffffff82169050919050565b6100fa816100bf565b811461010557600080fd5b50565b60805160601c610bd261012f600039806101d852806102b252806103665250610bd26000f3fe608060405234801561001057600080fd5b506004361061007d5760003560e01c8063793ea8d11161005b578063793ea8d1146100dc578063c31c9c071461010c578063e0bab4c41461012a578063ef690cc0146101485761007d565b8063089fe6aa146100825780634aa4a4fc146100a0578063541bcb76146100be575b600080fd5b61008a610166565b6040516100979190610a69565b60405180910390f35b6100a861016c565b6040516100b591906109f5565b60405180910390f35b6100c6610184565b6040516100d391906109f5565b60405180910390f35b6100f660048036038101906100f19190610866565b61019c565b6040516101039190610a84565b60405180910390f35b610114610364565b6040516101219190610a10565b60405180910390f35b610132610388565b60405161013f91906109f5565b60405180910390f35b6101506103a0565b60405161015d9190610a2b565b60405180910390f35b610bb881565b73c02aaa39b223fe8d0a0e5c4f27ead9083c756cc281565b731f9840a85d5af5bf1d1762f925bdaddc4201f98481565b60006101be73c02aaa39b223fe8d0a0e5c4f27ead9083c756cc23330866103dd565b6101fd73c02aaa39b223fe8d0a0e5c4f27ead9083c756cc27f0000000000000000000000000000000000000000000000000000000000000000856105fd565b600060405180610100016040528073c02aaa39b223fe8d0a0e5c4f27ead9083c756cc273ffffffffffffffffffffffffffffffffffffffff1681526020018473ffffffffffffffffffffffffffffffffffffffff168152602001610bb862ffffff1681526020013373ffffffffffffffffffffffffffffffffffffffff16815260200142815260200185815260200160008152602001600073ffffffffffffffffffffffffffffffffffffffff1681525090507f000000000000000000000000000000000000000000000000000000000000000073ffffffffffffffffffffffffffffffffffffffff1663414bf389826040518263ffffffff1660e01b81526004016103099190610a4d565b602060405180830381600087803b15801561032357600080fd5b505af1158015610337573d6000803e3d6000fd5b505050506040513d601f19601f8201168201806040525081019061035b919061083d565b91505092915050565b7f000000000000000000000000000000000000000000000000000000000000000081565b736b175474e89094c44da98b954eedeac495271d0f81565b60606040518060400160405280600581526020017f5265616479000000000000000000000000000000000000000000000000000000815250905090565b6000808573ffffffffffffffffffffffffffffffffffffffff166323b872dd60e01b868686604051602401808473ffffffffffffffffffffffffffffffffffffffff1681526020018373ffffffffffffffffffffffffffffffffffffffff1681526020018281526020019350505050604051602081830303815290604052907bffffffffffffffffffffffffffffffffffffffffffffffffffffffff19166020820180517bffffffffffffffffffffffffffffffffffffffffffffffffffffffff83818316178352505050506040518082805190602001908083835b602083106104dc57805182526020820191506020810190506020830392506104b9565b6001836020036101000a0380198251168184511680821785525050505050509050019150506000604051808303816000865af19150503d806000811461053e576040519150601f19603f3d011682016040523d82523d6000602084013e610543565b606091505b50915091508180156105835750600081511480610582575080806020019051602081101561057057600080fd5b81019080805190602001909291905050505b5b6105f5576040517f08c379a00000000000000000000000000000000000000000000000000000000081526004018080602001828103825260038152602001807f535446000000000000000000000000000000000000000000000000000000000081525060200191505060405180910390fd5b505050505050565b6000808473ffffffffffffffffffffffffffffffffffffffff1663095ea7b360e01b8585604051602401808373ffffffffffffffffffffffffffffffffffffffff16815260200182815260200192505050604051602081830303815290604052907bffffffffffffffffffffffffffffffffffffffffffffffffffffffff19166020820180517bffffffffffffffffffffffffffffffffffffffffffffffffffffffff83818316178352505050506040518082805190602001908083835b602083106106de57805182526020820191506020810190506020830392506106bb565b6001836020036101000a0380198251168184511680821785525050505050509050019150506000604051808303816000865af19150503d8060008114610740576040519150601f19603f3d011682016040523d82523d6000602084013e610745565b606091505b50915091508180156107855750600081511480610784575080806020019051602081101561077257600080fd5b81019080805190602001909291905050505b5b6107f7576040517f08c379a00000000000000000000000000000000000000000000000000000000081526004018080602001828103825260028152602001807f534100000000000000000000000000000000000000000000000000000000000081525060200191505060405180910390fd5b5050505050565b60008135905061080d81610b6e565b92915050565b60008135905061082281610b85565b92915050565b60008151905061083781610b85565b92915050565b60006020828403121561084f57600080fd5b600061085d84828501610828565b91505092915050565b6000806040838503121561087957600080fd5b600061088785828601610813565b9250506020610898858286016107fe565b9150509250929050565b6108ab81610abb565b82525050565b6108ba81610abb565b82525050565b6108c981610b06565b82525050565b60006108da82610a9f565b6108e48185610aaa565b93506108f4818560208601610b2a565b6108fd81610b5d565b840191505092915050565b6101008201600082015161091f60008501826108a2565b50602082015161093260208501826108a2565b50604082015161094560408501826109b9565b50606082015161095860608501826108a2565b50608082015161096b60808501826109d7565b5060a082015161097e60a08501826109d7565b5060c082015161099160c08501826109d7565b5060e08201516109a460e08501826109aa565b50505050565b6109b381610acd565b82525050565b6109c281610aed565b82525050565b6109d181610aed565b82525050565b6109e081610afc565b82525050565b6109ef81610afc565b82525050565b6000602082019050610a0a60008301846108b1565b92915050565b6000602082019050610a2560008301846108c0565b92915050565b60006020820190508181036000830152610a4581846108cf565b905092915050565b600061010082019050610a636000830184610908565b92915050565b6000602082019050610a7e60008301846109c8565b92915050565b6000602082019050610a9960008301846109e6565b92915050565b600081519050919050565b600082825260208201905092915050565b6000610ac682610acd565b9050919050565b600073ffffffffffffffffffffffffffffffffffffffff82169050919050565b600062ffffff82169050919050565b6000819050919050565b6000610b1182610b18565b9050919050565b6000610b2382610acd565b9050919050565b60005b83811015610b48578082015181840152602081019050610b2d565b83811115610b57576000848401525b50505050565b6000601f19601f8301169050919050565b610b7781610abb565b8114610b8257600080fd5b50565b610b8e81610afc565b8114610b9957600080fd5b5056fea26469706673582212201f4751107564aea3ec209708ed35d24dd5df62c34a6bedd49c8366b9c491aa0c64736f6c63430007060033",
  "linkReferences": {},
  "deployedLinkReferences": {}
}